:060000000A128A1110280B
:10000800FE00030EF2000408F3000A08F4007F085B
:10001800F5000A128A119D2E0A128A1113280A1253
:100028008A11F4260A128A11E3008313203084000F
:1000380053300A128A11EC260A128A11F601F701C6
:10004800F801F901FA0183010A128A11AA2A40303B
:100058008312031388000A128A11C8260A128A1109
:10006800F90114307906031D3A283B283C28B628A4
:10007800FA0108307A06031D422843284428B1288B
:100088007908343E840083130008F1007A0A4E2868
:100098000310F10CFF3E031D4C28711C54285528F1
:1000A80058288312031308167908353E840000087F
:1000B800F1007A0A61280310F10CFF3E031D5F2846
:1000C800711C672868286B28831203138815790820
:1000D800363E84000008F1007A0A74280310F10CF7
:1000E800FF3E031D7228711C7A287B287E28831204
:1000F800031308157908373E84000008F1007A0ACE
:1001080087280310F10CFF3E031D8528711C8D28DC
:100118008E2891288312031388147908383E8400A6
:100128000008F1007A0A9A280310F10CFF3E031D1B
:100138009828711CA028A128A42883120313081446
:100148008312031307140A128A11C8260A128A1185
:100158000130FF007F08FA073D280530FF007F08BF
:10016800F907352883120313880188170A128A11A0
:10017800C8260A128A11FA0104307A06031DC52816
:10018800C628C728D6287A088312031388000714BC
:100198000A128A11C8260A128A110130FF007F0844
:1001A800FA07C02860308312031388000A128A11E4
:1001B800C8260A128A11F90114307906031DE528A8
:1001C800E628E7286129FA0108307A06031DED2898
:1001D800EE28EF285C297908203E84008313000864
:1001E800F1007A0AF9280310F10CFF3E031DF728E5
:1001F800711CFF28002903298312031308167908A4
:10020800213E84000008F1007A0A0C290310F10C41
:10021800FF3E031D0A29711C12291329162983126E
:10022800031388157908223E84000008F1007A0A31
:100238001F290310F10CFF3E031D1D29711C2529E0
:10024800262929298312031308157908233E8400D7
:100258000008F1007A0A32290310F10CFF3E031D51
:100268003029711C382939293C2983120313881431
:100278007908243E84000008F1007A0A4529031011
:10028800F10CFF3E031D4329711C4B294C294F29B2
:100298008312031308148312031307140A128A1112
:1002A800C8260A128A110130FF007F08FA07E828D9
:1002B8000530FF007F08F907E02840308312031358
:1002C800880088170A128A11C8260A128A1104306F
:1002D800FA0008307A06031D7229732974298329C4
:1002E8007A0883120313880007140A128A11C82691
:1002F8000A128A110130FF007F08FA076D290800E9
:10030800013083120313CB070318CC0A0030CC0743
:100318006430D8000030D9004C08DB004B08DA0004
:100328000A128A116E250A128A11831203135808B9
:10033800C8000A30D8000030D9004C08D6004B0855
:10034800D5006430D3000030D4000A128A11F82591
:100358000A128A11831203135408DB005308DA00C7
:100368000A128A116E250A128A1183120313580879
:10037800C9004C08D6004B08D5006430D3000030C3
:10038800D4000A128A11F8250A128A11831203135B
:100398005408E0005308DF000A30D3000030D400CE
:1003A8006008D6005F08D5000A128A11F8250A12DB
:1003B8008A11831203135308CA00D0014530D100B3
:1003C80048305106031DE929EA29EB29A92A5008D2
:1003D800483E840083130008031DF329F429FD29EE
:1003E8003930D40051080A128A1134260A128A11A7
:1003F8009E2A5008483E84000003031D042A052A4B
:100408000E2A3C30D40051080A128A1134260A12E6
:100418008A119E2A5008483E840002300006031DB7
:10042800162A172A202A3F30D40051080A128A11A6
:1004380034260A128A119E2A5008483E8400033046
:100448000006031D282A292A322A4230D4005108DE
:100458000A128A1134260A128A119E2A5008483E26
:10046800840004300006031D3A2A3B2A442A4530FA
:10047800D40051080A128A1134260A128A119E2AB7
:100488005008483E840005300006031D4C2A4D2ABA
:10049800562A4830D40051080A128A1134260A1202
:1004A8008A119E2A5008483E840006300006031D23
:1004B8005E2A5F2A682A4B30D40051080A128A1132
:1004C80034260A128A119E2A5008483E84000730B2
:1004D8000006031D702A712A7A2A4E30D40051086A
:1004E8000A128A1134260A128A119E2A5008483E96
:1004F800840008300006031D822A832A8C2A513082
:10050800D40051080A128A1134260A128A119E2A26
:100518005008483E840009300006031D942A952A95
:100528009E2A5430D40051080A128A1134260A121D
:100538008A119E2A0130FF007F0883120313D00717
:100548000130FF007F08D107E4290800FF3083123B
:1005580003138600FF3083160313950083160317D1
:100568008901FF308316031386000A128A1169264F
:100578000A128A110A128A11B3260A128A118312E0
:1005880003136303031DC92ACA2AA82B0618CD2AF8
:10059800CE2AC32AE301CB01CC010D308312031309
:1005A800E200FB30E100E10BD72AE20BD72A8312E5
:1005B8000313D201D20A14305202031CE42AE52A9A
:1005C800E62AF52A5208203E840083138001520847
:1005D800343E8400413080000130FF007F08D2079C
:1005E800DF2AFF30B500FF30C7000F30D400453098
:1005F8000A128A1134260A128A11C32ACD01D2019D
:1006080014305206031D092B0A2B0B2B402B5208C2
:10061800213E840083130008E1005208203E840034
:1006280000086105CE005208213E84000008FF0042
:100638005208203E84007F0880045208213E84002E
:100648000008E1005208213E840000084E056106BA
:1006580003192F2B302B3B2B4E08FF005208213E4D
:1006680084007F0880050130FF007F08CD07013036
:10067800FF007F08D207042B0619432B442B4F2B6E
:100688004F08031D482B492B4F2B00300A128A11A3
:10069800C0230A128A1183120313061A542B552BEE
:1006A800602B4F08031D592B5A2B602B01300A125F
:1006B8008A11C0230A128A1183120313061B652BA1
:1006C800662B682BCF01CF0AD20114305206031DC6
:1006D8006E2B6F2B702B8D2B5208203E84008313BA
:1006E800000A031D782B792B882B5208203E8400A2
:1006F80080010A128A1184210A128A110130FF002E
:100708007F0883120313CD070130FF007F08D2074B
:10071800692B4F08031D912B922B9D2B823083123E
:100728000313E200DD30E100E10B982BE20B982B7C
:10073800A82B1A3083120313E200F730E100E10B13
:10074800A32BE20BA32BA82B831203134D08031D25
:10075800AE2BAF2B022B2730D40005300A128A119A
:1007680034260A128A110A128A1193240A128A114B
:10077800C32A0A128A11102883120313D6000D30D7
:1007880083120313D400FB30D300D30BC92BD40B33
:10079800C92BF80183120313D201D20A143052066E
:1007A800031DD72BD82BD92B922C1F30D3007808B8
:1007B800D30252085307D400540884008313000856
:1007C800D5005208203E840000085505CE00520886
:1007D800203E840000084E06F700F8015208213E2A
:1007E8008400000877050319FA2BFB2BFD2BF80171
:1007F800F80A5603031D012C022C3D2C0F307705F7
:10080800D3000F305306031D0A2C0B2C122C031097
:10081800F70C0F30FF007F08F704772C07307705B7
:10082800D30007305306031D1A2C1B2C222C03104F
:10083800F70C0730FF007F08F704772C03307705A3
:10084800D30003305306031D2A2C2B2C322C031003
:10085800F70C0330FF007F08F704772C771C352C42
:10086800362C3A2C0310F70C7714772C0310F70C5E
:10087800772CF0307705D300F0305306031D452C54
:10088800462C4D2C0310F70DF030FF007F08F704BD
:10089800772CE0307705D300E0305306031D552C44
:1008A800562C5D2C0310F70DE030FF007F08F7048D
:1008B800772CC0307705D300C0305306031D652C54
:1008C800662C6D2C0310F70DC030FF007F08F7046D
:1008D800772CF71F702C712C752C0310F70DF71758
:1008E800772C0310F70D4E087704F6004E087705AD
:1008F800CE005603031D812C822C852C0310CE0DAF
:10090800872C0310CE0C5208203E840076084E0433
:1009180080000130FF007F08D207D22B0800831225
:1009280003130108DA0006300310DA0CFF3E031D3A
:10093800982C5A08DC00CF015C08031DA42CA52CB8
:10094800D32C32081839031DAA2CAB2CB12C330830
:1009580018390319B02CB12CB62C0A128A11B425F7
:100968000A128A11831203136308031DBC2CBD2CC1
:10097800112D1830FF007F08B2041830FF007F08DF
:10098800B304CD01CD0A1A3083120313DB00F7300C
:10099800DA00DA0BCD2CDB0BCD2CD22C112D5C031D
:1009A800031DD72CD82CEF2C33083C390319DD2C28
:1009B800DE2CE32C0A128A11B4250A128A1183123A
:1009C80003136308031DE92CEA2C112D3C30FF00AA
:1009D8007F08B304C52C02305C06031DF42CF52CEB
:1009E800112D3219F82CF92CFF2C33081C39031956
:1009F800FE2CFF2C042D0A128A11B4250A128A1122
:100A0800831203136308031D0A2D0B2D112D3315B3
:100A18001C30FF007F08B204C52C080005308A008E
:100A28000408840A8207003450345234453453345D
:100A380053342034533454344134523454342034ED
:100A480060340034203420342034203420342034DE
:100A580020342034203420342034603400344734A7
:100A680041344D34453420344F34563445345234AF
:100A780060340034533443344F34523445343A34B8
:100A880020346034003454344534543452344934B6
:100A9800533420346034003430346034003431341A
:100AA8006034003432346034003433346034003419
:100AB80034346034003435346034003436346034CF
:100AC8000034373460340034383460340034393416
:100AD8006034003483120313DD01DE015808590421
:100AE8000319772D782DAF2DDC01DC0A862D013016
:100AF8000310D80DD90DFF3E031D7C2D0130FF00DA
:100B08007F08DC07D91F892D8A2D7B2D0130031022
:100B1800DD0DDE0DFF3E031D8B2D59085B02031D05
:100B2800972D58085A02031C9A2D9B2DA22D580860
:100B3800DA025908031CDB03DB025D1401300310E1
:100B4800D90CD80CFF3E031DA32D0130DC02031D78
:100B5800AE2DAF2D8A2D5E08D9005D08D80008009B
:100B680083120313E301E30A1C30D40005300A1290
:100B78008A1134260A128A1183120313D10106300E
:100B88005102031CC82DC92DCA2DF72DD2011430CE
:100B98005202031CD02DD12DD22DE22D5208203E19
:100BA800840083130009FF005208203E84007F0858
:100BB80080000130FF007F08D207CB2D023083125E
:100BC8000313D9004530D800A930D700D70BEA2D38
:100BD800D80BEA2DD90BEA2D0130FF007F088312CC
:100BE8000313D107C32D08008312031353085404B9
:100BF8000319FF2D002E2F2ED701D70A0E2E0130F4
:100C08000310D30DD40DFF3E031D042E0130FF0049
:100C18007F08D707D41F112E122E032E5408560210
:100C2800031D182E53085502031C1B2E1C2E222EA2
:100C38005308D5025408031CD603D602013003100A
:100C4800D40CD30CFF3E031D232E0130D702031D05
:100C58002E2E2F2E122E5608D4005508D300080029
:100C680083120313D5008B015508880088170A12D0
:100C78008A11DB260A128A1183120313D601592E10
:100C88005608540784000A128A1112250A128A117A
:100C9800880007140A128A11DB260A128A11013009
:100CA800FF007F0883120313D607560854078400F1
:100CB8000A128A1112250A128A11603A031D652E3A
:100CC800662E442EA0308B00080083120313870180
:100CD80088018316031387018801383083120313B0
:100CE800880007150711033083120313D4009730C7
:100CF800D300D30B7D2ED40B7D2E0C30831203131F
:100D0800880007150711033083120313D4009730A6
:100D1800D300D30B8D2ED40B8D2E83120313810198
:100D28004730FF007F08831603138105A0308B002E
:100D380008008B010A128A112B200A128A118312C9
:100D480003138101A0308B007508FF0074088A0026
:100D580073088400720E8300FE0E7E0E0900303088
:100D680083120313D40005300A128A1134260A129A
:100D78008A11013083120313D40045300A128A11F4
:100D880034260A128A110800831203130715071163
:100D98001E30F0000130F002023070020318D52E28
:100DA800D62ECE2E831203138801870108008312E2
:100DB8000313071507111E30D3000130D302023088
:100DC80053020318E82EE92EE12E88018701080056
:100DD80064008001840A0406031900340406ED2E19
:020DE8000134D4
:04400E00F42FFF3F4D
:00000001FF
